S0160000426C696E6B795F534B5F533747322E7372656346
S31500000000C01CFE1FC528000041240000C1280000B6
S31500000010C1280000C1280000C1280000000000001F
S31500000020000000000000000000000000C1280000E1
S31500000030C128000000000000D13C0000793D00000E
S31500000040FFFFFFFFFFFFFFFFFFFFFFFFFFFFFFFFBA
S31500000050FFFFFFFFFFFFFFFFFFFFFFFFFFFFFFFFAA
S31500000060FFFFFFFFFFFFFFFFFFFFFFFFFFFFFFFF9A
S31500000070FFFFFFFFFFFFFFFFFFFFFFFFFFFFFFFF8A
S31500000400FFFFFFFFFFFDFFFFFFFFFFFFFFFFFFFFF8
S31500000410FFFFFFFFFFFFFFFFFFFFFFFFFFFFFFFFE6
S31500000420FFFFFFFFFFFFFFFFFFFFFFFFFFFFFFFFD6
S31500000430FFFFFFFFFFFFFFFFFFFFFFFFFFFFFFFFC6
S31500000440FFFFFFFFFFFFFFFFFFFFFFFFFFFFFFFFB6
S31500000450FFFFFFFFFFFFFFFFFFFFFFFFFFFFFFFFA6
S31500000460FFFFFFFFFFFFFFFFFFFFFFFFFFFFFFFF96
S31500000470FFFFFFFFFFFFFFFFFFFFFFFFFFFFFFFF86
S31500000480FFFFFFFFFFFFFFFFFFFFFFFFFFFFFFFF76
S31500000490FFFFFFFFFFFFFFFFFFFFFFFFFFFFFFFF66
S315000004A0FFFFFFFFFFFFFFFFFFFFFFFFFFFFFFFF56
S315000004B0FFFFFFFFFFFFFFFFFFFFFFFFFFFFFFFF46
S315000004C0FFFFFFFFFFFFFFFFFFFFFFFFFFFFFFFF36
S315000004D0FFFFFFFFFFFFFFFFFFFFFFFFFFFFFFFF26
S315000004E0FFFFFFFFFFFFFFFFFFFFFFFFFFFFFFFF16
S315000004F0FFFFFFFFFFFFFFFFFFFFFFFFFFFFFFFF06
S3150000050020000000200001002F0000002F00010045
S315000005100C00010011000000300000003000010056
S31500000520240000002400010024000200240003002F
S31500000530240004002400050013000000170000003A
S315000005402300000021000000210001000700000038
S31500000550070001000700020007000300070004006F
S31500000560070005000700060007000700120000004C
S3150000057044000000080000000B00000041000000DD
S31500000580400000004000010004000000430000009D
S315000005902B0000002B000A002B000B002B000C0088
S315000005A02B000D002B0001002B0002002B00030086
S315000005B02B0004002B0005002B0006002B00070073
S315000005C02B0008002B0009000600000006000A00A8
S315000005D006000B0006000C0006000D0006000E00CB
S315000005E006000F00060001000600020006000300D8
S315000005F006000400060005000600060006000700C7
S31500000600060008000600090015000000150001009C
S3150000061015000200310000002A000000450000001D
S3150000062010000000030100000300000003000100A9
S315000006300F0000000D0000002D0000004200000029
S315000006402C0000002C0001002C0002002C000300EE
S31500000650320000002800000018000000140000000E
S31500000660140001001400020014000300140004002A
S31500000670140005001400060014000700140008000A
S3150000068014000900340000003400010016000000C8
S31500000690160001003500000036000000360001009B
S315000006A02200000033000000330100002900000092
S315000006B010B5054C237833B9044B13B10448AFF396
S315000006C000800123237010BD2C01FE1F00000000D6
S315000006D07C62000008B5034B1BB103490348AFF326
S315000006E0008008BD000000003001FE1F7C62000093
S315000006F010B40B4B1C68B4EB102F03D803205DF825
S31500000700044B704749B15B685DF8044B020A52011D
S3150000071004330020D3580B8070470120EFE700BF59
S31500000720E800FE1FD2B110B40D4B1C68B4EB102FBD
S315000007304FEA102C03D803205DF8044B70475B6822
S3150000074022EA01004FEA4C1C08330A4042EA004202
S315000007504CF8032000205DF8044B704703207047D7
S31500000760E800FE1F12B310B4114B1C68B4EB102F37
S315000007704FEA102C03D803205DF8044B70475C68E1
S315000007804FEA4C1C02EA010354F80C00034361EAE9
S3150000079002019AB2114054F80C20120C12041143B3
S315000007A044F80C1000205DF8044B70470320704796
S315000007B0E800FE1F10B40B4B1C68B4EB102F03D8D7
S315000007C003205DF8044B704751B15B685DF8044B3C
S315000007D0020A520104330020D3581B0C0B807047C9
S315000007E00120EEE7E800FE1F10B40D4C2368B3EBC2
S315000007F0102F03D803205DF8044B7047002AF9D068
S3150000080063684FEA102C083322EA010003EB4C130D
S315000008100A4042EA00425A6000205DF8044B7047E5
S31500000820E800FE1F20B14FF002230360002070474E
S315000008300120704738B50488002C4DD0436800214C
S31500000840043303EBC40040F202450C4640F2034C6D
S3150000085040F2044E0FE0624530D153F8042C02F00A
S31500000860B852B2F1807F14BF41F0020144F0020495
S315000008700833834211D01A88AA42ECD153F8042CCB
S3150000088002F0B852B2F1807F03F1080314BF41F0C1
S31500000890010144F001048342EDD1C943CDB20120E8
S315000008A001F0BEFF0D4B93F8BB2414432C4083F894
S315000008B0BB44BDE83840012001F082BF7245D7D164
S315000008C053F8042C02F0B852B2F1807F0CBF44F00A
S315000008D0040441F00401CBE7FF25E0E700E0014016
S315000008E0012958D870B42E4B1A68B2EB102F4FEA74
S315000008F0102409D99A68C0B252F8245000F11006A3
S315000009000122B2402A4202D1032070BC704700EB9C
S315000009100410D3E9035454F8203000293DD043F0A5
S315000009200401204E0E40EFF3108C012383F3108850
S315000009301D4B1A8892B212B9EA704022EA701A88E0
S31500000940013292B21A808CF3108811F4803F54F869
S31500000950202007D022F4803244F82020134A0A408F
S3150000096044F8202044F82060EFF31081012282F33E
S3150000097010881A8892B21AB11A88013A92B21A806D
S315000009801B889BB213B98022EB70EA7081F3108842
S31500000990002070BC70470320704723F00401C0E7B5
S315000009A0E800FE1FD5FC011F4801FE1FD5FC001FF5
S315000009B070B582B00446002501A80E468DF8045095
S315000009C001F020FD9DF80430DB0713D5202C0ED84E
S315000009D0012E0CD8094BDB681A780CBF22EA0404F6
S315000009E01443284604F030041C7002B070BD032086
S315000009F002B070BD062002B070BD00BFE800FE1F49
S31500000A00002861D02DE9F04743680646002B58D0F0
S31500000A10FFF710FF3388002B50D02C4F2C4A4FF095
S31500000A20000C4FF0010E4FF0400A4FF0800971683C
S31500000A30F8681FFA8CF401EBC40351F834509B8814
S31500000A403C69190ADBB203EB0113EFF310888EF34E
S31500000A501088118889B211B9C17080F803A0118875
S31500000A60013189B2118088F3108815F4803F54F85B
S31500000A70231007D021F4803144F8231025F4803167
S31500000A8044F8231044F82350EFF310818EF31088B6
S31500000A9013889BB21BB11388013B9BB2138013884A
S31500000AA09BB213B9C37080F8039081F31088318824
S31500000AB00CF1010C1FFA8CF39942B8D80020BDE85E
S31500000AC0F0870120BDE8F08701207047E800FE1F8F
S31500000AD04801FE1F00282ED070B5436886B0044634
S31500000AE0002B2AD01649174DCE6809220023019201
S31500000AF0CDE90233CDE9043302A901A8B0470A23A0
S31500000B008DF80430029B6B60059BAB6002A9BDF8B3
S31500000B100C302B6001A8B047012302A98DF80530DF
S31500000B2001A8029B2B61B047029BEB602046FFF7B2
S31500000B3067FF06B070BD01207047012006B070BD8A
S31500000B40E45C0000E800FE1F30B4124C2268B2EBF1
S31500000B50102F0CD9A268030AC0B252F8235000F134
S31500000B60100C012202FA0CFC1CEA050F02D103202C
S31500000B7030BC704751B1226900EB031330BC52F808
S31500000B802330C3F3400300200B707047104630BC7F
S31500000B90704700BFE800FE1F30B4154C2368B3EB66
S31500000BA0102F0CD9A368020AC0B253F8225000F1E4
S31500000BB0100C012303FA0CFC1CEA050F02D10320DA
S31500000BC030BC704789B164685201043403FA00F0FE
S31500000BD0145982B200EA1440824214BF0020002059
S31500000BE030BC0CBF0B7008707047184630BC70479D
S31500000BF0E800FE1F10B5174A1468B4EB102F0DD984
S31500000C00030A9468C0B254F8234000F1100C4FF068
S31500000C10010E0EFA0CFC1CEA040F01D1032010BDD4
S31500000C207145FBD852680CD0083202EB43130EFA1A
S31500000C3000F0596841EA0041090C09045960002096
S31500000C4010BD083202EB431381405868014389B254
S31500000C50F4E700BFE800FE1F012921D830B4124C8A
S31500000C602368B3EB102F4FEA10220BD9A368C0B24A
S31500000C7053F8225000F1100C012303FA0CFC1CEA75
S31500000C80050F02D1032030BC704703FA00F049B1CA
S31500000C9083B26168520108310020535030BC70475E
S31500000CA0032070470304F4E7E800FE1F2DE9F04136
S31500000CB02E4D2B68B3EB102F84B00CD9AB68060A07
S31500000CC0C7B253F8263007F110024FF0010808FAB0
S31500000CD002F21A4203D1032004B0BDE8F08102AB50
S31500000CE0ADF80C0068460C4602910193ADF8008001
S31500000CF0FFF7A0FDD5E9035107EB0613EFF31086C6
S31500000D0088F310881A48028892B212B9EA70402213
S31500000D10EA700288013292B2028086F31088E603F6
S31500000D2051F8232007D522F4803241F8232024F4F9
S31500000D30803241F8232041F82340EFF3108201234B
S31500000D4083F3108803889BB21BB10388013B9BB2D7
S31500000D50038003889BB213B98021EB70E97082F39C
S31500000D601088002004B0BDE8F08100BFE800FE1F37
S31500000D704801FE1F034B04301B6823F82010002097
S31500000D80704700BF4C01FE1F034B1A68031D00206D
S31500000D9022F82300704700BF4C01FE1F034B1A6860
S31500000DA0137843F080030020137070474C01FE1F38
S31500000DB0034B1A6813786FF3C7130020137070473C
S31500000DC04C01FE1F20B14FF0022303600020704744
S31500000DD00120704770B586B0002833D01B4A002327
S31500000DE00B21CDE90113CDE90333D26805930446FF
S31500000DF002A901A89047054610B1284606B070BD65
S31500000E00134E029B336001A801F0FEFB636873B1C9
S31500000E1030682B46A26812F8231002EB83020431D5
S31500000E20528820F82120626801339A42F2D823784A
S31500000E30002BE2D032681378284643F08003137003
S31500000E4006B070BD0125284606B070BDE45C000002
S31500000E504C01FE1F60B1012808D1094B1B68002018
S31500000E6040214122187119711A717047012070478B
S31500000E70034B1B6840214122987099709A70704705
S31500000E804C01FE1F062070470620704720B14FF028
S31500000E9002230360002070470120704732490B6827
S31500000EA093F8282002F03003102B0CD0202B02D010
S31500000EB000238B61704790F82B302C4A9B0932F83F
S31500000EC013305BB97047038D10B403F00303284C4D
S31500000ED034F8133003BB5DF8044B704707EE903AC5
S31500000EE0B8EE677AD1ED047A90F82B30F8EE676A9F
S31500000EF003F01F03C6EE877A07EE103AB8EE477A7C
S31500000F00F7EE006A37EE267A67EE877AFCEEE77A26
S31500000F1017EE903A8B617047520622D5028D12F079
S31500000F20100F0CBF0322002201EB820207EE903A5B
S31500000F30D2ED016A038DF8EE677AF8EE666AC3F3BE
S31500000F40052386EEA77A013307EE903AFAEEEF7A9A
S31500000F5067EE277AFCEEE77AC1ED067A5DF8044B78
S31500000F6070470322E0E700BFFC00FE1FF4570000B5
S31500000F700458000051B3062810B429D005280AD019
S31500000F8004282DD0D8B1012842D0022838D0032811
S31500000F902ED0032010E0224C0023E0690B60026A89
S31500000FA0C2F3027290F8263003F0070304EB8303C2
S31500000FB000205B68D3400B605DF8044B7047184C0B
S31500000FC00860E069026AC2F30232EBE7012070476B
S31500000FD0134C0023E0690B60026AC2F30262E1E788
S31500000FE00F4C0023E0690B60026AC2F30242D9E7A4
S31500000FF00B4C0023E0690B60026A02F00702D1E79E
S31500001000074C0023E0690B60026AC2F30212C9E7CB
S31500001010034C0023E0690B60026AC2F30222C1E7B7
S31500001020FC00FE1F38B5084BDD690446002001F0C0
S31500001030F7FB95F8303064F30003002085F8303074
S3150000104001F0BEFB002038BDFC00FE1F10B5084BAA
S31500001050DC69002001F0E4FB94F8523043F0010310
S31500001060002084F8523001F0ABFB002010BD00BF19
S31500001070FC00FE1F10B5084BDC69002001F0D0FB18
S3150000108094F852306FF30003002084F8523001F0D8
S3150000109097FB002010BD00BFFC00FE1F10B5084BDB
S315000010A0DC69002001F0BCFB94F83E3043F080037D
S315000010B0002084F83E3001F083FB002010BD00BF05
S315000010C0FC00FE1F10B5084BDC69002001F0A8FBF0
S315000010D094F83E306FF3C713002084F83E3001F0D9
S315000010E06FFB002010BD00BFFC00FE1F10B5084BB3
S315000010F0DC69002001F094FB94F8533043F00103BF
S31500001100002084F8533001F05BFB002010BD00BFC7
S31500001110FC00FE1F10B5084BDC69002001F080FBC7
S3150000112094F853306FF30003002084F8533001F035
S3150000113047FB002010BD00BFFC00FE1F38B5084B62
S31500001140DD690446002001F06BFB95F8243064F35A
S315000011500613002085F8243001F032FB002038BD4C
S31500001160FC00FE1F30B583B001F0A6F84FF0E02377
S3150000117001901D69186910F0020028D0DDED017A92
S31500001180164CF8EE677AF7EE006A86EEA77A00202C
S31500001190186194F82320D1B2DFED117ADFED116AE0
S315000011A027EE277AC6EE877AFCEEE77A17EE902AC4
S315000011B0013AB2F1807F0CD25A61F02284F82320E2
S315000011C001F0F001072298611A6184F8231003B038
S315000011D030BD12201D6103B030BD00BF00ED00E040
S315000011E00024744900401C4608B1FFF7BBBF03202A
S315000011F0704700BF052827D070B5144B0428DD6959
S3150000120004460E4606D195F88034DB0702D54FF426
S31500001210C87070BD002001F003FB95F83E306FF3F7
S31500001220C71385F83E3095F83E3066F3061385F809
S315000012303E3095F83E3064F30203002085F83E30D8
S3150000124001F0BEFA002070BD03207047FC00FE1FAF
S3150000125038B5002402F0070261F30E349DF810C081
S315000012609DF8141062F30A2463F306140E4B6CF314
S3150000127002041B6861F312449DF8181093F82A3093
S3150000128061F31E749DF81C10054661F31A645B0732
S3150000129048BF62F31244002001F0C2FA2C62BDE896
S315000012A03840002001F08CBAFC00FE1F10B5174B29
S315000012B0DC6994F84120D00706D494F84130DB0766
S315000012C04FF0000010D410BD1A6894F8263092F83A
S315000012D02820510603F0070313D4052B01D0032B56
S315000012E0EBD140F2971010BD01F09AFA94F8413014
S315000012F06FF30003002084F8413001F061FA00200A
S3150000130010BD228DD206EAD4E7E700BFFC00FE1F1F
S315000013100620704706207047062070470620704753
S31500001320024630B329B3144BDB6993F826C0CCF3DD
S31500001330020C82F800C01A6AC2F302320A701A6AF4
S31500001340C2F302224A701A6AC2F302128A701A6A39
S31500001350C2F30202CA701A6AC2F302420A711A6A18
S31500001360C2F302724A711B6AC3F3026300208B71D7
S3150000137070470120704700BFFC00FE1F2DE9F843AF
S3150000138000295AD0002874D03D4DEB6993F8AA4045
S3150000139014F001046DD193F8A020196A1C6A1F6A23
S315000013A02E68C7F3021C1F6A07F0070E1F6AD3F8E0
S315000013B020901B6AC3F30268B36802F00302C1F30C
S315000013C00231C4F30224C7F30247C9F3027953B3C7
S315000013D0032A28D133698B422DD8A3422BD86345E3
S315000013E029D8734527D84B4525D8BB4223D8434532
S315000013F021D80146012001F01BF8EC69002001F01C
S315000014000FFA94F8403043F0800384F8403094F8A3
S31500001410403043F00103002084F8403001F0D0F959
S315000014200020BDE8F883F368002BE2D0022AE0D161
S3150000143073698B42D1D90520F3E7114BDD6995F825
S315000014404130DB0718D408460C4601F0E9F995F857
S31500001450403064F3000385F8403095F8403064F37B
S31500001460C713204685F8403001F0AAF92046BDE8AA
S31500001470F8830120BDE8F8834FF4CB70BDE8F8830C
S31500001480FC00FE1F70B5434D88B0284600F0C2FF31
S31500001490414A00230321CDE90433CDE90633019106
S315000014A0D26804A901A89047049CEC614FF6FF732B
S315000014B0029394F83630DE0754D5002001F0B0F9D7
S315000014C094F8A530062262F3020384F8A5300020C2
S315000014D001F076F92B68EC69D3E906232B612F4BD3
S315000014E0AB6000204FF400434FF6FF766A60A861B8
S315000014F0EB606B61029601F093F994F8803443F047
S31500001500010384F88034002001F05AF9EC6903964F
S3150000151094F88034D80714D5039BFBB12B68226A54
S3150000152093F8225094F82630002001F079F994F8C7
S315000015308034DB0727D4002001F042F9002008B0F0
S3150000154070BD039B002BE7D0039B013B039394F8EC
S315000015508034DA07F5D5039B002BDFD14FF4CD702D
S3150000156008B070BD94F83C30D90708D4029B33B15B
S31500001570029B013B029394F83C30D907F6D5029BB7
S31500001580002B9AD1EAE794F8813423EA050384F81C
S315000015908134D0E7FC00FE1FE45C000000127A00F4
S315000015A005292ED8DFE801F00A11181F260390F846
S315000015B02A0000F0010080F00100704790F8360024
S315000015C000F0010080F00100704790F8380000F04C
S315000015D0010080F00100704790F8900400F00100CF
S315000015E080F00100704790F8320000F0010080F0B2
S315000015F00100704790F8800400F0010080F00100BF
S3150000160070470020704700BF052867D870B5554D54
S315000016100446E86990F8263003F007039C4282B03E
S3150000162020D0052B11D090F82A30DB070DD5012CE0
S315000016301CD190F84030DB0978D12146FFF7B0FF86
S31500001640002866D1002002B070BD2B6893F82830C0
S315000016505E0669D5038D13F0100F0CBF032300231C
S315000016609C42E4D140F2911002B070BD2146FFF7D2
S3150000167097FF0028E6D0032CEE693CD0052C07D155
S3150000168096F83C309B0654D440F2931002B070BDDD
S3150000169034BB96F83C30D907F6D5204601F0C0F8A1
S315000016A096F8363043F0010386F83630002001F014
S315000016B087F84FF6FF73019304E0019B43B1019B4A
S315000016C0013B0193E8692146FFF76AFF0028F4D140
S315000016D0019B002BB6D14FF4CD70B4E703207047C1
S315000016E0002001F09DF8631E042BDFD8DFE803F02D
S315000016F015320A2B240096F83C301A07C4D5002070
S3150000170001F08EF896F8323043F0010386F8323055
S31500001710CCE70020EE6901F083F896F8383043F004
S31500001720010386F83830C1E7032399E740F29510A4
S3150000173089E7002001F074F896F82A3043F0010397
S3150000174086F82A30B2E796F8803443F0010386F82B
S315000017508034ABE796F8903443F0010386F8903472
S31500001760A4E700BFFC00FE1F05281DD808B5431ED0
S31500001770012B014608D9042806D068B1032815D0E4
S3150000178005281FD0002008BD194BD869FFF708FFB0
S3150000179038B140F2911008BD154AD069FFF700FF35
S315000017A0F0B94FF4C87008BD03207047104AD069DD
S315000017B0FFF7F6FE0028F4D0D36993F83C301B07F8
S315000017C00BD512E00A4AD069FFF7EAFE0028E8D0F6
S315000017D0D36993F83C30990607D440F2931008BDBC
S315000017E0D36993F83C30DA07F7D54FF4C97008BDD2
S315000017F0FC00FE1F30B583B04FF6FF730446012090
S3150000180001930D4601F00CF800230DF103008DF84D
S31500001810033000F0CBFC94F8AA30D80605D494F82F
S31500001820A030D906C3F300120AD5019B013B0193F0
S31500001830019B002BEFD1012000F0C2FF03B030BDA9
S3150000184094F8AA304FF6FF7162F3000384F8AA30C9
S31500001850019102E0019B013B019394F8AA30DA065C
S3150000186003D494F8A030DB0602D5019B002BF1D1FE
S3150000187094F8A030042D0CBF43F0030365F3010375
S3150000188084F8A0304FF6FF73019302E0019B013B01
S31500001890019394F8AA30D80603D494F8A030D90658
S315000018A002D5019B002BF1D194F8AA30042D0CBF70
S315000018B043F001036FF3000384F8AA304FF6FF7379
S315000018C0019302E0019B013B019394F8AA30DA06EA
S315000018D003D494F8A030DB0602D5019B002BF1D18E
S315000018E09DF8030000F076FC012000F069FF03B0CC
S315000018F030BD00BF0428124B0ED002280CD01A6847
S3150000190092688A4207D3D86990F82A30DB0702D555
S315000019100321FFF76FBF7047D86990F82A20D207D6
S31500001920EDD590F83220D207E9D590F83620D207C7
S31500001930E5D590F83820D207E1D50421FFF75ABF44
S31500001940FC00FE1F2DE9F041052888B02BD80C4677
S31500001950002900F0AE800B788A79934223D3497828
S31500001960994220D3E17899421DD8637993421AD3DC
S315000019702179914217D30428074619D0674EF0699A
S3150000198090F8263003F007039F4228D0002F00F07E
S31500001990BC80032F40F0AE8090F83C301A071ED46E
S315000019A040F2931500E00325284608B0BDE8F08113
S315000019B0134340F0A880594EF06990F84030DB0997
S315000019C040F0A18090F8263003F00703042B06D0E0
S315000019D03946FFF7E5FD002800F09D80F069036AAF
S315000019E0036A036A036A036A036A036A0021C3F38C
S315000019F00268FFF7FFFE00238DF810308DF81C30CB
S31500001A0006EB8703A2795B68D3400593F3691A6AEC
S31500001A1093F8263003F0070306EB8303C2F3026252
S31500001A205B6804A8D340069300F056FC05460028E0
S31500001A30BAD1A379984541D2039363790293237966
S31500001A400193E3780093A37862782178F069FFF731
S31500001A50FFFBF469284600F0E3FE94F8263067F3AE
S31500001A600203284684F8263000F0AAFEF3691A6AB3
S31500001A7093F8263003F0070306EB8306C2F30262EF
S31500001A8073680121D34004A88DF81010069300F066
S31500001A9023FC0546002887D100F00EFC204B0146AA
S31500001AA01860002837D03846FFF724FFFFF75AFBA7
S31500001AB07AE70125284608B0BDE8F081D6F81C80F3
S31500001AC000F0AEFE98F8263067F30203284688F841
S31500001AD0263000F075FEA379039363790293237988
S31500001AE00193E3780093A37862782178F069FFF791
S31500001AF0AFFBBBE7052F7FF46BAF90F83C309B063E
S31500001B003FF56DAF4CE705254EE790F83C30D90719
S31500001B103FF565AF44E74FF4C87545E7FC00FE1F87
S31500001B209C01FE1F2DE9F0432DED028B042883B0A6
S31500001B30044668D0012800F0498120BBB74DEE6904
S31500001B4096F83C30DB0700F1538196F8AA30DF07A0
S31500001B5000F1558196F8A030002000F061FE96F85D
S31500001B6036306FF3000386F83630002000F028FE8A
S31500001B704FF6FF73EA690193052C1BD8DFE804F0E2
S31500001B80343E392F2016032800F0CE8005285BD07E
S31500001B90A24D0020EE6900F043FEA31E032BE4D8FD
S31500001BA0DFE813F00D0106014400BB0092F82A306D
S31500001BB0DB0709D5019B3BB1019B013B0193DBE7A9
S31500001BC092F88034D907F5D4019B002B14BF00206E
S31500001BD04FF4CD7003B0BDEC028BBDE8F08392F8F4
S31500001BE03230DD07E6D4EFE792F83630DB07E1D492
S31500001BF0EAE792F89034DE07DCD4E5E792F838306D
S31500001C00DF07D7D4E0E7854D2B68EE6993F822709D
S31500001C10002000F005FE96F88034D9070DD4002088
S31500001C2000F0CEFD0020EE6900F0FAFD96F8803453
S31500001C306FF3000386F8803497E796F8813423EA39
S31500001C40070386F88134EAE70E46002900F0EE80A5
S31500001C50724D72782B6893F824109142C0F0DB80A5
S31500001C6093F8262096ED017A07EE902AF8EE677A29
S31500001C70F4EEC77AF1EE10FA00F1CD8093F8253034
S31500001C8007EE903AF8EE677AB4EEE77AF1EE10FADC
S31500001C9000F1C1803178032902D0002940F0BB80D1
S31500001CA0E869FFF77DFC002800F0C280EF6997F82D
S31500001CB03C30990600F19C8097F8AA30DA0700F1CB
S31500001CC0BA8097F8A03096F80080002000F0A8FDB2
S31500001CD03B8DB8F1030F0CBF6FF3041343F01003F1
S31500001CE03B85002000F06CFD2B68EF6993F82830E7
S31500001CF096F8018003F03003102B00F0D080202BE3
S31500001D0000F09F803846FFF7C9F8E8690021FFF721
S31500001D1071FD0020EE6900F083FD96F82A306FF31E
S31500001D20000386F82A3020E73C4DEF6997F83C30EF
S31500001D301E075DD497F8AA30D80771D497F8A0305B
S31500001D402B68002093F8276093F8208093F8219061
S31500001D5000F066FD97F8133406FA09F25BB25A40B2
S31500001D6002EA08025340DBB287F81334002000F081
S31500001D7027FDEE69002000F053FD96F813346FF34B
S31500001D80861386F81334002000F01AFDEE69002051
S31500001D9000F046FD96F8A230052262F3030386F8AA
S31500001DA0A230002000F00CFD0020EE6900F038FDA6
S31500001DB096F832306FF3000386F83230D5E696F89F
S31500001DC090346FF3000386F89034CEE6134DEE6937
S31500001DD096F8AA30DA0718D496F8A030002000F05A
S31500001DE01FFD96F838306FF3000386F83830BCE6EE
S31500001DF040F2931003B0BDEC028BBDE8F083304691
S31500001E000321FFF7F7FCEE69A6E630460321FFF74C
S31500001E10F1FCEE69E2E70320DCE600BFFC00FE1FF2
S31500001E2038462146FFF7E6FCEF6989E70120D1E64F
S31500001E304FF4CA70CEE638460321FFF7DBFCEF69A4
S31500001E4041E72F4B002033F8188000F0E9FC97F8A3
S31500001E502B3068F3871387F82B30002000F0B0FC96
S31500001E602B68EF6993F8283096ED018A03F030036A
S31500001E70102B2ED0202B10D1002000F0D1FCFCEE30
S31500001E80C87A97F82B2017EE903A013B63F30402C9
S31500001E9087F82B20002000F093FCEF6932E7194BFE
S31500001EA0002033F8189000F0BBFC3B8D69F301036A
S31500001EB03B85002000F084FC2B6893F8283003F063
S31500001EC03003202BBDD0102BEF697FF41BAF96EDAE
S31500001ED0018A002000F0A4FC78EE087A3A8DFCEE28
S31500001EE0E77A002017EE903A013B63F30D223A851C
S31500001EF000F066FC2B6893F8283003F03003B9E74E
S31500001F00EC570000FC57000005280AD808B5194A06
S31500001F10431ED269042B27D8DFE803F00D21171CD6
S31500001F2005000320704792F82A30DB0707D5BDE885
S31500001F300840FFF7F7BD92F83830DB07F7D41046B4
S31500001F40FEF7ACFF40F2911008BD92F83230DB0785
S31500001F50EDD4F4E792F88034DB07E8D4EFE792F8A3
S31500001F609034DB07E3D4EAE792F83630DB07DED4B9
S31500001F70E5E700BFFC00FE1F2DE9F04383B0012812
S31500001F8001910C461CD0022803D0002003B0BDE806
S31500001F90F0830529164619D0DFF8A080D8F81C0072
S31500001FA02146FFF7FDFA00283DD1311D2046FFF7F7
S31500001FB0B9FD0028E9D040F291139842E5D0E5E753
S31500001FC0084603B0BDE8F043FFF71EBB1279052AA9
S31500001FD027D8DFF868801146D8F81C00FFF7E0FA2A
S31500001FE030BB31461046FFF79DFDA8B996F8049020
S31500001FF04FF6FE7540F2931701E0013DC6D0484604
S31500002000FFF7B2FBB842F8D00028C7D06FF4C87308
S31500002010C318012BC2D9B9E740F291139842E5D013
S31500002020B4E70320B2E7D8F81C00FEF737FFACE7A9
S31500002030D8F81C00FEF732FFD8E700BFFC00FE1FF1
S315000020402DE9F04782B0002854D0DFF85C8106788D
S31500002050D8F81C3090F815A093F826701A6A1A6AF8
S315000020601A6A1A6A1A6A1A6A1B6AC37C8DF80230DF
S31500002070037D8DF80130C37D8DF803308146837D65
S31500002080007E8DF800A0052E07F007078DF80430B6
S315000020908DF8050029D806F108036B4413F8083CAF
S315000020A0012B22D0022809D199F80430052B1CD81F
S315000020B008336B4413F8083C012B16D04A46052119
S315000020C0FFF75AFF0446002849D140F29115E1B2C4
S315000020D04A4650460134FFF74FFF08B1A84249D19E
S315000020E0052C0CD01DF804A0F1E70324204602B00D
S315000020F0BDE8F0870124204602B0BDE8F0874FF620
S31500002100FE7540F2931A01E0013DEFD03046FFF72D
S315000021102BFB50450446F7D020B16FF4C875431920
S31500002120012BE3D8042E27D0002509F10C013046F7
S31500002130FFF708FC04460028D8D1BE4206D007F1B6
S3150000214008036B4413F8083C012B0ED0002DCDD0AC
S3150000215000F0B2F801463046FFF7CCFBC6E740F286
S3150000216091139842C2D10024AFE73846FFF74CFAE4
S315000021700028EBD00446B9E7D8F81C3093F82A209B
S31500002180D0070ED593F83220D1070AD593F836201A
S31500002190D20706D593F8385005F0010585F00105FC
S315000021A0C3E70125C1E700BFFC00FE1F034668B177
S315000021B0074AB2F80011C1F30001197092F8003114
S315000021C06FF30003002082F800317047012070474A
S315000021D000C00140104991F8043143F0010381F831
S315000021E00431B1F804318446D8070AD54FF0FF33DD
S315000021F000E07BB1B1F80421D20703F1FF33F8D434
S3150000220043B1054A92F800316CF30003002082F8CE
S31500002210003170471420704700C0014070B5244D4E
S3150000222082B02B6898470120FFF7D4FFAE680021E3
S315000022300320B0471F4AEC69019240F20313ADF840
S3150000224000300320A047B0F5C97FFAD169460520C2
S31500002250B04728B140F29113984201D000BEEC6914
S315000022600520A047B0F5C97FFAD10123022200213B
S315000022708DF806102C698DF800308DF801208DF848
S3150000228002208DF803308DF805208DF8043069465C
S315000022900520A04700B100BE2B6E04209847AB6A0C
S315000022A001209847EB6A9847AB6D984702B070BD1E
S315000022B0805700000000A04100B5064B83B0002205
S315000022C09B69019201A906209847019803B05DF821
S315000022D004FB00BF8057000010B403782BB1012B1C
S315000022E03BD000205DF8044B704742683F498A4264
S315000022F04CD93F4B3F4C4FF0F10C83F804C0197A90
S3150000230041F004011972197A41F008011972197A1B
S3150000231041F001011972197A41F002011972A242C3
S315000023204FF0F00119715BD983F804C01A7A42F0B4
S3150000233010021A721971022303732F4991F81C2196
S3150000234002F007029A423EBF91F81C2163F3020293
S3150000235081F81C210378012BC3D18368234A934259
S315000023601FD9244A934231D9234A017B92F81C3162
S3150000237003F007039942B4D092F81C3161F30203CB
S3150000238082F81C3100205DF8044B70471B498A42D5
S3150000239029D8194A037392F81C315DF8044B0020C2
S315000023A07047134BF1221A711A7A6FF382021A726E
S315000023B01A7A6FF3C3021A721A7A6FF300021A724C
S315000023C01A7AF0216FF341021A721971084BF12241
S315000023D01A711A7AF0216FF304121A721971C3E78F
S315000023E0074B9A42A7D801230373A6E7000E2707D7
S315000023F00020004000C2EB0B00C0014000B4C40442
S3150000240000688909037823F0030343F0030303708C
S31500002410704700BF014B0360704700BF0C580000B7
S3150000242002483022002101F03DBE00BF5001FE1FD0
S31500002430024B43F820100020704700BF5001FE1FDA
S3150000244008B56F4BB3F84031D80700F1CB806C4B21
S31500002450B3F84031990700F1B880694BB3F84031C1
S315000024605A0700F1A580664BB3F840311B0700F10F
S315000024709280634BB3F84031D8067FD4604BB3F8F3
S3150000248040315906C3F380106CD45D4BB3F840312C
S315000024901A065AD45A4BB3F84031DB0548D4584B88
S315000024A0B3F84031980536D4554BB3F84031590549
S315000024B024D4534BB3F840311A0512D4504BB3F819
S315000024C04031DB0400D408BD4E4BDB6A0BB10B2058
S315000024D098474B4AB2F8303143F48053A2F8303172
S315000024E008BD484B9B6A0BB10A209847444AB2F88C
S315000024F0303143F40063A2F83031DFE7414B5B6AC9
S315000025000BB1092098473E4AB2F8303143F4806354
S31500002510A2F83031CDE73B4B1B6A0BB10820984738
S31500002520374AB2F8303143F40073A2F83031BBE7D2
S31500002530344BDB690BB107209847314AB2F830318A
S3150000254043F48073A2F83031A9E72E4B1B680BB118
S31500002550002098472A4AB2F8303143F08003A2F8A7
S31500002560303197E7274B5B6803B19847244AB2F8A6
S31500002570303143F04003A2F8303186E7214B9B69A6
S315000025800BB1062098471E4AB2F8303143F01003CB
S31500002590A2F8303172E71B4B5B690BB105209847F7
S315000025A0174AB2F8303143F00803A2F8303160E739
S315000025B0144B1B690BB104209847114AB2F830310D
S315000025C043F00403A2F830314DE70E4B9B680BB184
S315000025D0022098470A4AB2F8303143F00203A2F8C3
S315000025E030313AE7074BDB680BB103209847044AC2
S315000025F0B2F8303143F00103A2F8303127E700BFCB
S31500002600006000405001FE1F0278452A30D81E4B5C
S315000026109B5CFF2B35D010B590F801E0B0F802C0F6
S31500002620980603F01F0115D4F444A1EB0C01012018
S3150000263088409B09154A52F82320EFF310810123A5
S3150000264083F31088136823EA0003136081F310886C
S31500002650002010BD01242B2A04FA01F00AD0332AE7
S31500002660E7D1BEF1010F04BF01310EFA01F0E0E738
S3150000267001207047BCF1070FDBD9013104FA01F0E4
S31500002680D7E70320704700BF385800008058000085
S31500002690034640B1064A92E803004FF0000C83E877
S315000026A00300604670474FF0010C6046704700BF5C
S315000026B0A8580000A0F101000028FBD1704700BF18
S315000026C010B501FB00F4FFF7F7FD4FF47A72A4FB97
S315000026D002CE4FF0FF331149B1FBF0F063454FF0E6
S315000026E0000171EB0E0E07D3BCFBF0F0800878B149
S315000026F0BDE81040FFF7DEBF8000B4FBF0F4A4FB9A
S315000027000242A34271EB020203D320460028EFD116
S3150000271010BDBDE810401846FFF7CCBF00CA9A3B73
S315000027200B4A0C4B10B49B1A0B4CDB08236063B1AD
S315000027300A4800219388C3F3090340F8043B236841
S3150000274001318B4202F10802F4D85DF8044B704760
S3150000275000050000000500008001FE1F0063004028
S31500002760F0B5114D114C1249124A134B134E0E601F
S31500002770641BA40815601C6084B105EB840EAC468E
S3150000278000275CF8040B2A46002352F8041B8842F3
S3150000279005D001339C42F8D1F445F2D1F0BDF445A1
S315000027A0F754EED1FAE700BF00050000B0060000BE
S315000027B08C01FE1F8801FE1F8401FE1F7800FE1F8C
S315000027C0EFF31081012383F31088124B33F81020A6
S315000027D092B22AB133F81020013A92B223F81020AF
S315000027E033F810309BB293B910B40B4A0B4CB2F8C5
S315000027F0FE3334F810009BB243F4254323EA00036A
S31500002800A2F8FE3381F310885DF8044B704781F31C
S31500002810108870479001FE1F00E0014094580000A8
S3150000282030B4EFF31081012383F310880E4A32F897
S3150000283010309BB26BB90D4C0D4DB4F8FE3335F824
S3150000284010C09BB243EA0C0343F425439BB2A4F8A1
S31500002850FE3332F8103001339BB222F8103081F388
S31500002860108830BC704700BF9001FE1F00E0014099
S3150000287094580000024B00221A805A809A807047B2
S315000028809001FE1F08B50B4A0346106840B103339A
S31500002890094923F0030303448B4204D8136008BD9F
S315000028A006481060F3E701F0E9FB0C2303604FF0E4
S315000028B0FF3008BD9801FE1FC014FE1FC004FE1F96
S315000028C000BE704708B500F005F800F04DFAFEE7C7
S315000028D0704700BFF8B5414AD2F8883043F4700318
S315000028E0C2F8883000200446FFF7F2FFFFF798FD94
S315000028F03B4B1B689847FFF7BDFFFFF78FFC394A34
S31500002900394B148039481B689847394A3948121A96
S3150000291002D0214601F0C6FB374A3848121A02D0C7
S31500002920374901F0B1FB374B37493848384A00245C
S315000029304FF425459C801D809860DA60B1F820210F
S3150000294092B2012542F48052A1F820219D80FFF722
S31500002950B3FC304B024628461A602F4DFFF7B8FFEE
S315000029602E4B5B1BA3424FEAA30605DD55F8043B3D
S3150000297001349847A642F9DCFFF7F2FEFFF7D0FED6
S31500002980274B284C1B682848284D9847D4E9000156
S31500002990D4E90023584001F08DFBD4E900232449F3
S315000029A0561845EB0307C4E90067D4E9006786F0CB
S315000029B01E4287F07D4382F4120283F42D0382F4D3
S315000029C0384283F4A44383F02B0382F03702C4E930
S315000029D000230020BDE8F84000F02CB800ED00E030
S315000029E0E45C00004801FE1F28570000E458000080
S315000029F0C004FE1F2C01FE1FE400FE1F0000FE1F88
S31500002A0080620000000D004000600040C014FE1F00
S31500002A10BF1CFE1F9C01FE1F7000FE1F7400FE1FE0
S31500002A20645700002001FE1F9C580000E34FE6F4A7
S31500002A301654E7A100F02CB882B04FF0C842936953
S31500002A40D907FCD400210091009B536961F3000370
S31500002A505361936A4FF0200C6CF30F239362936AD1
S31500002A604FF0C04043F0800393620368009340F642
S31500002A70FF714FF0C842019104E0019B013B0193B5
S31500002A80019B13B1936A5B06F7D502B0704700BF8E
S31500002A90F8B5684A11684FF0C84400236FF38611F1
S31500002AA0102011602063A36123626363C4F80438B5
S31500002AB0A26863F30402A2606369FF2043F0010386
S31500002AC0636120616369662143F0010363612161EB
S31500002AD0636901210B4399226361226163690B4398
S31500002AE023206361FFF7ECFD9F2323612269524B8C
S31500002AF0D2B21A702169C9B259702069C0B29870F1
S31500002B006569EF2A45F00105656101D1402903D0C9
S31500002B1000221A809A70F8BD1728F9D10521216183
S31500002B2025696269352742F0010262612761434ADD
S31500002B3020691070606940F001006061A66A042097
S31500002B4060F30306A662666860F3030666605026B5
S31500002B502661666946F00106666192F800C00126A4
S31500002B60EDB24CF0020C82F800C0266125611578A2
S31500002B70256165693543656120616069304360613F
S31500002B80206861F30200206021612069606930439A
S31500002B9060612761206910706269324362619B78C7
S31500002BA0182B3AD9062323616369B722334363613D
S31500002BB0226163693343636121612269636943F07A
S31500002BC001036361D307F7D4636A43F003036362C7
S31500002BD0636A062243F01003636222616269E92197
S31500002BE042F0010262612161626942F001024FF026
S31500002BF0C8430520626118611A69596912F0010219
S31500002C0041F001015961F6D1596A022060F30101D0
S31500002C105962596A62F3041159624FF0C844236835
S31500002C2043F040032360FFF707FF63696FF3000378
S31500002C306361F8BD00700440A001FE1FA401FE1FE1
S31500002C4008B500F05FF8BDE8084000F093B800BF93
S31500002C5030B5104C104D226889B00123D018B4212C
S31500002C604FF48062CDE90433CDE902330691019237
S31500002C7020600A4A0A490B480095002300F0FCFA36
S31500002C8008B909B030BD0748002109B0BDE8304099
S31500002C9000F010B87C02FE1FC01CFE1F412C000075
S31500002CA0B8580000A801FE1F704700BFFFF7FCBF21
S31500002CB0704700BF00BE70470E4A0F4970B5002529
S31500002CC00E4E157004461C230D483560012200F097
S31500002CD061FA28B9FFF7BCFF2046FFF7E9FF70BD90
S31500002CE007482946FFF7E6FFFFF7B2FF2046FFF742
S31500002CF0DFFF70BD5C02FE1FD05800007C02FE1F85
S31500002D006002FE1F38B515484FF0FF3100F092FA09
S31500002D10F0B9134B1A7802B138BD124C01221A7061
S31500002D20FFF7C4FF2368013B2360002BF4D00B4D53
S31500002D3004E02368013B2360002BEDD0284600F019
S31500002D408FFA0028F5D000212846FFF7B3FFF0E7F9
S31500002D5002480021FFF7AEFFDBE700BF6002FE1F5F
S31500002D605C02FE1F7C02FE1F08B572B600F062FB15
S31500002D70002008BD70B582B06846FFF789FCBDF833
S31500002D800030C3B10C4A56680125C5F10105EDB204
S31500002D905BB10024019A336A32F814002946984739
S31500002DA0BDF800300134A342F4D8322000F0F2FC22
S31500002DB0BDF80030E9E7FEE7C8580000034678B1E1
S31500002DC00849094A0968914208D1084AD2F89C2163
S31500002DD0516802EB810200201A607047122070478A
S31500002DE0012070472801FE1F494D460000B07F4074
S31500002DF020B14FF002230360002070470120704786
S31500002E00B0B10C4A0C4B12689A420FD10B4BD3F857
S31500002E109C315A6800F1100103EB820353F8042F2A
S31500002E2040F8042B8842F9D10020704712207047E1
S31500002E30012070472801FE1F494D460000B07F4023
S31500002E4098B392B3F0B51D4C1D4B24689C4201D03B
S31500002E501220F0BD1B4B1C684CB31B4B05781B683E
S31500002E604FF0000C05E00CF1010CA44503F108033A
S31500002E701DD093F806E0AE45F5D15E79B0F802E0D4
S31500002E80BEEB960FEFD1DE7990F801E006F007076A
S31500002E907745E8D1B1EBD60FE5D182F800C09B8823
S31500002EA0C3F3090300205380F0BD01207047DF21E2
S31500002EB0FF23117053800B20F0BD00BF2801FE1FB9
S31500002EC0494D46008001FE1F905800001E4B1A68AF
S31500002ED09AB103F57F71002001E053F8042F8B426D
S31500002EE01044FAD148B9194BD3F89C311A0CB2F5F3
S31500002EF0807F05D000BE00BEFCE700BE00BEFCE73A
S31500002F001A68013A033208D8114A93F8241092F845
S31500002F1000C08C4504D000BEFDE700BE00BEFCE745
S31500002F20517893F825C06145F5D1917893F826C07C
S31500002F306145F0D1D27893F827309A42EBD1054B10
S31500002F40054A1A60704700BFFC5C000000B07F4075
S31500002F50205D00002801FE1F494D4600002861D073
S31500002F6000295FD0864A874B12689A4201D0122008
S31500002F7070472DE9F041844D0278AC6805EB840476
S31500002F80A3789A4280F0C980170904EB870E02F0F5
S31500002F900F0CBEF8086026FA0CF818F0010F00F0C6
S31500002FA0BC8012F0080F9EF80AE008D004EB8707F1
S31500002FB002F0070CFA7A02F00F02360A9644734AB8
S31500002FC012F80CC0724A0CEA06061B09925D02331F
S31500002FD072449B0003EB4203E218E35A92F9016044
S31500002FE0C3F30903002E05EB83021DDB4678002E92
S31500002FF040F08F806668D4784088C4F303144C721E
S31500003000D478C4F303048C7201248C80002833D155
S3150000301035F823409378CB8006EB04260E600872C1
S31500003020C86078E00120704715F8233044785B08C3
S315000030302CBB032B79D059D873D0D4784088C4F3ED
S3150000304003144C72D478C4F303048C7214798C8004
S31500003050A04211D2D6889568012B00FB06550D605B
S3150000306000F08580022B73D0B2F80150CD8000238A
S315000030700B72CB60002D56D140F27A504BE0022500
S315000030804FF0010C4FF0040E1678F60704F1FF34EA
S315000030903FD5052B72D8DFE803F003231914120A73
S315000030A00C231A4413785B08002CEDD1C1E7937802
S315000030B0DE1C15FB03C303EB96039B00F1E7082315
S315000030C0EFE793781EFB03C39B00EAE71679937834
S315000030D013FB06F30333033603EB96039B00E0E78B
S315000030E01379033303F4FE730C33DAE7042B18D198
S315000030F0D078547852680A60C0F303038B720023B9
S31500003100C0F303128B800B72CB60A3074A72CC808C
S3150000311009D440F27950BDE8F0814FF4AF60BDE8C4
S31500003120F0816420F7E70020F5E7D078547803466D
S31500003130C3F30303C0F30310042548728B72002007
S3150000314093788B802A440D72CC800860CA60E2E7CF
S31500003150131803341D7B93780B7200FB03F30333C0
S3150000316003EB940402EB8402CD80CA6082E702443A
S315000031700023157BCD800B72CB607BE7002390E7A5
S315000031802801FE1F494D4600FC5C0000DC5C000087
S315000031905C5C000008B11C2B01D00C2070472DE9A7
S315000031A0F0410F4616468046EFF3108172B61D4A6F
S315000031B013680133136081F310881B4B1C681B4B8B
S315000031C01D684DB1A04207D0002301E0A04503D001
S315000031D00133AB426469F9D1EFF3108172B613681B
S315000031E0013B136081F3108800F004FBA04513D067
S315000031F0EFF305820E4B19680A4306D0EFF30582FA
S315000032001B681343B3F1F03F09D3324639464046B3
S31500003210BDE8F04100F032B90C20BDE8F081132082
S31500003220FBE700BFD002FE1FB002FE1FAC02FE1F6E
S315000032300000FE1F18B1084B02689A4201D00C200C
S31500003240704729B1EFF30583044A1268134301D18D
S3150000325000F03EB904207047414D45530000FE1F63
S3150000326018B1044A0368934201D00C20704700F05D
S3150000327071B900BF414D45532DE9F04F85B09A46CF
S31500003280119B0193129B0393139B0293DDE90F8914
S315000032900E9D149B08B1B42B03D00E2005B0BDE8DB
S315000032A0F08F8B4617460646EFF3108272B6DFF8AC
S315000032B010C1DCF800300133CCF8003082F31088FE
S315000032C03C4B1A683C4B08F1FF301C682844DAB1C5
S315000032D0A64219D000230097D4F80CE0AE454FF073
S315000032E0000106D82769AF424FF001018CBF0025C7
S315000032F00021864503F1010343D82769874240D957
S31500003300009FD4F888400025EFF3108272B6DCF8EF
S315000033100030013BCCF8003082F3108800F06AFAE6
S31500003320A642BAD0002D38D0002F36D0B8F1C70F3C
S3150000333031D9B9F11F0F36D8019B994535D3029B78
S31500003340012B2ED8EFF305821C4B19680A4306D0D1
S31500003350EFF305821B681343B3F1F03F27D3029BBB
S315000033601393039B1293019B3A46CDE9109359465A
S3150000337053463046CDE90E5805B0BDE8F04F00F093
S3150000338013B99342D4F8884003D0A64201D000294D
S31500003390A2D0009FB8E7052080E7032005B0BDE86E
S315000033A0F08F10207AE70F2078E7182076E71320B1
S315000033B074E700BFB802FE1FBC02FE1F0000FE1F1E
S315000033C0D002FE1F38B500F089F900F03FFB0D482A
S315000033D00D490E4A0E4C0F4D002303600B6013601F
S315000033E00D480E490E4A236003600B6013600D4CB6
S315000033F00D480E490E4A2B60236003600B60136074
S3150000340038BD00BFAC02FE1FA802FE1FA402FE1FAD
S315000034109402FE1FB002FE1F9002FE1F8402FE1FD2
S315000034208002FE1F8C02FE1F8802FE1FA002FE1FE6
S315000034309C02FE1F10B50E4C236813F10F3F0AD0F5
S315000034404FF0F033236000F07BFBFFF7BBFF094A28
S31500003450136801331360084A4FF0F0331068236095
S31500003460FFF72AFC00232360BDE8104000F0ACBB48
S315000034700000FE1FD002FE1F9802FE1F002330B47C
S31500003480C0E901120360C360036143618361EFF326
S31500003490108172B60B4A0C4C136804600B4C4BB986
S315000034A04061206080610133136081F31088002041
S315000034B030BC70472468A569A0616861C0E905450C
S315000034C0F1E700BFAC02FE1F414D4553B002FE1F9F
S315000034D0F8B5EFF3108272B683682BB1013B8360B7
S315000034E082F310880020F8BD31B3174B1C681CBB53
S315000034F0164C174E2468D4F8B050E0660135C4F86F
S31500003500B0500569A666DDB1C6682667776F67673E
S315000035103C67746701350561062020630120A063BE
S315000035201868E1640130186082F31088204600F0C4
S31500003530F5F9D4F88400F8BD82F310880D20F8BDA3
S31500003540C460C4E91C44E5E7D002FE1FC002FE1FAA
S315000035508D3E000038B5EFF3108172B6036933B9BA
S3150000356083680133836081F31088002038BD013BF6
S31500003570C26814D0146F556FC46065672C67094C18
S3150000358003612368002501339566C2F884502360E1
S3150000359081F31088104600F04BF9002038BDC36057
S315000035A0EDE700BFD002FE1F2DE9F84F0A9D0B9EE6
S315000035B00C9FDDF838B004468A469146EF21324624
S315000035C02846984600F06EFDB4220021204600F001
S315000035D069FD2023C4F89C300D9B66619F4206F16D
S315000035E0FF36364BE5604FF003023544C4E91198C7
S315000035F0C4E906BBC4E915343149C4F828A02561DD
S31500003600E762C4F8947004BFE763C4F89870226355
S31500003610204600F0B3FBEFF3108072B6294A2A4B1E
S31500003620236013686BBB2949C4E922440C6001334B
S315000036301360274A1368013313600F9B012B2BD1AC
S31500003640EFF30582234B1B681343B3F1F03F07D218
S3150000365080F31088204600F0EBF80020BDE8F88FD4
S315000036601D4B1D683DB3EB6AEE6BEB6380F3108870
S31500003670204600F0DDF8002DEFD0EE630020BDE817
S31500003680F88F12490968D1F88C50C1F88C40C5F8FA
S315000036908840C4E92215CAE780F31088EFF3108149
S315000036A072B61368013B136081F3108800F0A2F82C
S315000036B00020BDE8F88F2E46D8E700BF1D3A00006F
S315000036C041370000B802FE1F44524854BC02FE1F98
S315000036D0D002FE1F0000FE1FC402FE1F0E490F4B44
S315000036E00F48104A10B500240C60202119600460B0
S315000036F01460214680220C4800F0D4FC0B490C4A89
S315000037000C600C4913680C600B480C49046043F0CC
S31500003710C57313600C6010BDC402FE1FC802FE1FF5
S31500003720C002FE1F5403FE1FD402FE1FBC02FE1F72
S31500003730B402FE1FD002FE1FB802FE1FCC02FE1FFF
S31500003740114B10B51C68D4E9113098470F4B1B6814
S315000037500BB120469847EFF3108172B60C4A01234D
S315000037602363A363136800200133E064136081F3CD
S315000037701088EFF3148323F0040383F314882046A0
S31500003780BDE8104000F0CAB8C002FE1FCC02FE1F02
S31500003790D002FE1F10B5EFF3108272B6124B1C68F2
S315000037A064B1EFF30583114909680B4306D110B9DB
S315000037B082F3108810BD0E4B196819B182F3108878
S315000037C0132010BDC4F884101968E0640131196033
S315000037D0042101232163A36382F31088204600F0AD
S315000037E09DF8D4F8840010BDC002FE1F0000FE1F25
S315000037F0D002FE1F0A4B1B688BB90A4A0A4B126895
S315000038001B689A420BD0094B4FF080525A60EFF377
S31500003810058323B9EFF3108362B683F310887047EC
S31500003820D002FE1FC002FE1FC402FE1F00ED00E014
S31500003830F8B50446EFF3108572B6436E002B3AD006
S315000038404C3000F067F92E4AA16B1368013B1360F8
S31500003850236B31BBB3B92B492B4B1B6885F31088FF
S31500003860096899420DD013685BB9284B4FF0805216
S315000038705A60EFF3058323B9EFF3108362B683F33F
S315000038801088F8BD636B8BB9E06A2149236351F850
S315000038902030B3B1596A0C625C62616223621949D5
S315000038A0DAE7013B012BD6D9636B33B10323002141
S315000038B0C4E90C31CFE7C364C5E71249A3632363A8
S315000038C0CAE7144E41F820403368134F0121814066
S315000038D00B4333603B688342C4E90844BBD90949BA
S315000038E038600B684BB1DB6B8342B5D90C6085F34E
S315000038F010881368002BC4D1B7E70C60ACE700BF93
S31500003900D002FE1FC402FE1FC002FE1F00ED00E033
S31500003910D402FE1F5403FE1FC802FE1FF8B5374B24
S3150000392004461D68EFF3108672B685423AD0344AD3
S315000039301368013B1360A36B012B14D0314B86F344
S3150000394010881B68AB420DD013685BB92E4B4FF045
S3150000395080525A60EFF3058323B9EFF3108362B602
S3150000396083F31088F8BD216AE06A4FF0000C8C42A0
S31500003970C4F838C025D0636A244F4B62196257F8E1
S315000039802030A3421AD01F4B1968A142D7D1204933
S31500003990096857F82110196086F310881368002B00
S315000039A0E0D1D3E7EB6C013B033303D805F14C00C0
S315000039B000F086F8174BE2691A60B8E747F820105E
S315000039C0E1E71549114F834047F820C0086820EA0F
S315000039D003030B6033B193FAA3F3B3FA83F30C49F1
S315000039E00B60D0E70A492020086006490B6086F381
S315000039F010881368002BB5D1A8E700BFC002FE1FD0
S31500003A00D002FE1FC402FE1F00ED00E0D402FE1F1E
S31500003A10C802FE1F0404FE1F5403FE1FEFF3108CA2
S31500003A2072B6026B042A07D0826ED0F8B0108CF3FF
S31500003A30108802B110477047034A136801331360B8
S31500003A408CF31088FFF7F4BED002FE1F1048114A0F
S31500003A50114B124910B50024046014601048114A35
S31500003A600C601460214680220460184600F01AFBA0
S31500003A700D490E4A03460E480B60136080330D490C
S31500003A800D4A03600D4B0C6014601C6010BD00BF36
S31500003A900004FE1F0404FE1F7403FE1F6C03FE1FBA
S31500003AA07003FE1F6803FE1FF803FE1F6403FE1F5C
S31500003AB0F403FE1FFC03FE1F6003FE1F5C03FE1FD4
S31500003AC00268531ED91C01D8816901B17047202AAA
S31500003AD00D4A0E491268096894BF9B007C23134463
S31500003AE0994208D91A685AB1516908615061C0E90A
S31500003AF004218361EAE7064A12685B1A1344F1E778
S31500003B00C0E904001860F4E76403FE1FF403FE1F17
S31500003B10F803FE1F836963B1026990420AD04169C6
S31500003B2051610A611968814204BF93611A600023DA
S31500003B30836170471A688242F9D100221A60F6E75B
S31500003B4010B472B6184A194B1168194A19601368ED
S31500003B501848194C1949046043F0010313600B68B7
S31500003B60174AA2FB03235B09013BB3F1807F0AD20C
S31500003B704FF0E02213485361F0240021072380F818
S31500003B802340916113610F4BF0220021DA7783F80D
S31500003B90222083F82310EFF3148C2CF0040C8CF302
S31500003BA014885DF8044B7047000000005803FE1FA0
S31500003BB0001000E09802FE1FC420FE1F9C01FE1F9D
S31500003BC01F85EB5100ED00E0114B124C12481349D2
S31500003BD0002222609A809A821A801A829860D9609E
S31500003BE09861D961EFF3088282F309880C48B0F82E
S31500003BF0202192B2012142F48052A0F8202199801E
S31500003C00998262B6074B4FF080525A60FEE700BFBA
S31500003C10000D0040D002FE1FC014FE1FBF1CFE1F79
S31500003C200060004000ED00E070B42349234D244CB1
S31500003C30244A254E4AF2025C1FE08B89C3F3C03347
S31500003C4013601368012B0FD1B1F8FE339BB23360BA
S31500003C50A1F8FEC38B8960F3CF338B81336843F4BD
S31500003C6025439BB2A1F8FE33BFF34F8F30BFBFF39E
S31500003C706F8F62B61368012B0BD072B62B68236068
S31500003C8020680028D9D0114B4FF0006270BC5A60F2
S31500003C90704772B6B1F8FE339BB23360A1F8FEC32B
S31500003CA08B8943F400438B81336843F425439BB2ED
S31500003CB0A1F8FE3362B6E0E700E00140C402FE1F51
S31500003CC0C002FE1F0C04FE1F0804FE1F00ED00E0EC
S31500003CD025480168002945D0EFF30983A3F12003A5
S31500003CE083F3098803F1200323E9F00F1EF0100F78
S31500003CF007D1A3F1400383F3098803F1400323EDC1
S31500003D00108A43F804ED8B60184C236813B18B615D
S31500003D1000232360164E72B633680BB1036001E0D0
S31500003D20FFF782FF366862B6706801307060B0696E
S31500003D30206010484FF000014161F16881613169EE
S31500003D40C161B36853F804EB1EF0100F01D1B3EC58
S31500003D50108AB3E8F00F83F309884FF0010141613F
S31500003D607047FEE7014CD5E7C002FE1F0404FE1FA4
S31500003D70C402FE1F000D004000F028B8026922F0C0
S31500003D800702A2F144026FF00203136002F104027B
S31500003D904FF00003136053609360D3601361536167
S31500003DA0C36893614FF00003D36113625362936259
S31500003DB0D36213634FF0FF33536391634FF0807305
S31500003DC0D363A2F104028260704700BF24492548EC
S31500003DD00A680368013210B50A60DBB9224C216813
S31500003DE0224A1368186800B3214B01221A6000F0BA
S31500003DF0C3F8236823BB1F4B1B6853B11E4A1268C6
S31500003E00934206D01D4B1B681BB91D4B4FF08052C9
S31500003E105A6010BD013B144C0360A3B9134A1368E2
S31500003E201868012121600028DED116480068043395
S31500003E30834213600CD00E4B1B6831B1002BD6D1D8
S31500003E4000F064F8D7E72168CAE7002BD3D0CEE7A5
S31500003E500D48074B00681B6810600029EED1F4E797
S31500003E600004FE1F0404FE1F6C03FE1F6403FE1FF6
S31500003E706803FE1FC402FE1FC002FE1FD002FE1F03
S31500003E8000ED00E0F403FE1FF803FE1F10B5EFF38C
S31500003E90108372B61A4A846E944202D083F3108855
S31500003EA010BDD0F8B0208A42F8D1C26E002AF5D0F3
S31500003EB0144914688C42F1D111690029EED000240E
S31500003EC0013984661161C1B1D0E91C144C672167C0
S31500003ED0D468844211D0026B062ADFD10A490A68E7
S31500003EE00D240132C0F884400A6083F31088FFF77E
S31500003EF09FFCEFF3108372B6D0E7D160EBE700BF0B
S31500003F008D3E0000414D4553D002FE1F144B1B68E9
S31500003F10EFF3108272B613490020086093B1196B53
S31500003F2081B9D3E9071010B40F4C9961984221600A
S31500003F3003D0D96ADB6B994207D082F310885DF80B
S31500003F40044B704782F310887047084B084C43F8BF
S31500003F5021002068074953F820300B60EDE700BFC9
S31500003F60C002FE1F6C03FE1F0404FE1FD402FE1FC8
S31500003F70C802FE1FC402FE1F2DE9F04F83B0EFF307
S31500003F80108A72B6374A1768002F5DD1364E3368ED
S31500003F90002B59D00123DFF8D880DFF8D8B0DFF83E
S31500003FA0D8901360314B1B681868009008B1C0F8B0
S31500003FB018D0D8F8000043F8047B2C4A37608342B7
S31500003FC0136004BFDBF8003013608AF31088EFF348
S31500003FD0108A72B6009C002C31D001AD12E0203B55
S31500003FE02360A56124610194C9F800408AF3108812
S31500003FF0EFF3108A72B6019BC9F800709C422CD070
S31500004000009CE4B1236901979C4222D06069586103
S3150000401000930361C3F818D02368202BDFD86268A9
S315000040202260D4E90230B2B1A56124610194C9F8D5
S3150000403000408AF31088002BDAD09847D8E7336817
S31500004040002BAFD1074A13608AF3108803B0BDE88E
S31500004050F08F0097E0E7A261E9E7A7612046FFF746
S315000040602FFDCDE7FC03FE1F6803FE1F6403FE1F42
S31500004070F403FE1FF803FE1F7003FE1F014B1868B2
S31500004080704700BF0400FE1F0A44914200F1FF334F
S3150000409000D1704710B511F8014B03F8014F91425A
S315000040A0F9D110BD02440346934200D1704703F88C
S315000040B0011BF9E738B5104B1D68AB6B0446B3B965
S315000040C0182000F055F80246A86320B90B4B0C489F
S315000040D0422100F01DF80B490B4BC0E900130B4BB6
S315000040E083600B23838100210120C2E90401AB6BAD
S315000040F000221C615A6138BD0400FE1F00610000E9
S31500004100176100000E33CDAB34126DE6ECDE050010
S315000041101FB514461A46094B1B680546D8684CB1AC
S31500004120074B0091CDE9013406492B4600F00EF805
S3150000413000F0C4FC044B1C46F3E700BF0400FE1F5E
S3150000414095610000A2610000D06100000EB403B5C5
S31500004150014603AB054853F8042B0068019300F0B1
S3150000416019F902B05DF804EB03B070470400FE1FB6
S31500004170024B0146186800F06FB800BF0400FE1F2E
S3150000418037B5002944D051F8043C0190002BA1F129
S315000041900404B8BFE41800F00BFF1E4A0198136828
S315000041A033B96360146003B0BDE8304000F006BF69
S315000041B0A34208D9256861198B4201BF19685B685B
S315000041C049192160EDE71A465B680BB1A342FAD99B
S315000041D011685518A5420BD1246821445418A342EE
S315000041E01160E0D11C685B68536021441160DAE716
S315000041F002D90C230360D6E7256861198B4204BFF8
S3150000420019685B68636004BF491921605460CAE796
S3150000421003B030BD1004FE1F70B50E4E0C4631685B
S31500004220054611B900F07AFB30602146284600F0B9
S3150000423075FB431C0AD0C41C24F00304A04207D01B
S31500004240211A284600F06AFB013001D14FF0FF34F5
S31500004250204670BD1404FE1F2DE9F041CD1C25F04B
S31500004260030508350C2D38BF0C25002D074601DB4C
S31500004270A94205D90C233B6000263046BDE8F081F3
S315000042802E4E00F095FE33681C4634BB2946384650
S31500004290FFF7C2FF431C04464DD134682646002E64
S315000042A040D123683146384604EB030800F036FB5C
S315000042B080453AD1216803356D1A25F00305083586
S315000042C00C2D38BF0C2529463846FFF7A5FF0130CF
S315000042D02BD023682B4423600EE02268521B1ED489
S315000042E00B2A16D96119A342256018BF5960636865
S315000042F008BF316062514B60384604F10B0600F08E
S315000043005DFE26F00706231DF21AB6D09B1BA350AE
S31500004310B3E76268A3420CBF32605A60ECE72346FB
S315000043206468B2E734467668B9E70C233B603846E2
S3150000433000F044FEA1E72560DEE700BF1004FE1F83
S315000043409368013B002B10B4936008DA9469A3428A
S3150000435001DB0A2903D15DF8044B00F0EFBA1368BC
S31500004360581C1060197008465DF8044B7047F8B584
S3150000437006460F461446D518AC4201D1002007E088
S3150000438014F8011B3A463046FFF7DAFF431CF3D117
S31500004390F8BDFFFF2DE9F04F0D469DB01446984637
S315000043A0064618B183690BB900F0AAFC894B9D42F9
S315000043B01BD175686B6ED90705D4AB899A0502D4F3
S315000043C0A86D00F03BFDAB891B0701D52B69EBB946
S315000043D02946304600F004FBC0B16B6EDC070ED5F3
S315000043E04FF0FF301DB0BDE8F08F7B4B9D4201D1F1
S315000043F0B568DFE7794B9D4208BFF568DAE7AB8918
S315000044009805EDD4A86D00F01AFDE9E7002309939D
S3150000441020238DF82930CDF80C803023DFF8C081B9
S315000044208DF82A304FF0010923469A4613F8012BDE
S315000044300AB1252AF9D1BAEB040B0BD05B4622460A
S3150000444029463046FFF793FF013000F0AA80099A0B
S315000044505A4409929AF80030002B00F0A2800023FB
S315000044604FF0FF32CDE905230AF1010A04930793C1
S315000044708DF853301A935446052214F8011B5848F8
S3150000448000F046FD049AD8B9D10644BF20238DF822
S315000044905330130744BF2B238DF853309AF800305E
S315000044A02A2B15D0079A544600204FF00A0C2146B5
S315000044B011F8013B303B092B4ED9B0B1079214E0FD
S315000044C0A0EB080309FA03F313430493A246D2E7C9
S315000044D0039B191D1B680391002BBBBF5B4242F077
S315000044E0020207930793B8BF049223782E2B0CD1B0
S315000044F063782A2B35D1039B1A1D1B680392002B68
S31500004500B8BF4FF0FF3302340593DFF8E4A02178FB
S315000045100322504600F0FCFC40B14023A0EB0A0009
S3150000452003FA00F0049B03430134049314F8011BBF
S315000045302C488DF82810062200F0EAFC00283FD00F
S31500004540294B1BBB039B073323F007030833039355
S31500004550099B3B44099367E70CFB02320C4601209A
S31500004560A5E700230134059319464FF00A0C2046AF
S3150000457010F8012B303A092A03D9002BC5D0059132
S31500004580C3E70CFB012104460123F0E703AB0093CC
S315000045902A46164B04A93046AFF300800746781C1E
S315000045A0D6D16B6ED90705D4AB899A0502D4A86D0E
S315000045B000F045FCAB895B063FF512AF099811E7A1
S315000045C003AB00932A46094B04A9304600F080F855
S315000045D0E4E700BF246200004462000004620000B9
S315000045E0D1610000DB610000000000006F430000A5
S315000045F0D76100002DE9F047164699468A680B698F
S31500004600DDF820809342B8BF1346336091F843200B
S3150000461007460C460AB1013333602368990642BF48
S31500004620336802333360256815F0060506D104F1B8
S31500004630190AE36832689B1AAB4226DC94F84320D9
S31500004640131E226818BF012392062BD404F14302DD
S3150000465049463846C04701301ED02368E5683268AF
S3150000466003F00603042B08BFAD1AA36822690CBF2A
S3150000467025EAE57500259342C4BF9B1AED1800266E
S315000046801A34B5421AD1002008E0012352464946A1
S315000046903846C047013003D14FF0FF30BDE8F08700
S315000046A00135C6E7E1185A1C302081F84300224440
S315000046B094F8451082F843100233C7E701232246D7
S315000046C049463846C0470130E6D00136D9E7FFFFF4
S315000046D02DE9FF470F7E0C9D782F914680460C46AC
S315000046E09A4601F1430207D8622F0AD8002F00F03C
S315000046F0D880582F00F0A38004F1420584F8427058
S315000047003AE0A7F16303152BF6D801A151F823F07F
S31500004710694700007D470000F9460000F9460000A1
S31500004720F9460000F94600007D470000F946000002
S31500004730F9460000F9460000F946000089480000E5
S31500004740AD4700006B480000F9460000F94600003E
S31500004750AB480000F9460000AD470000F9460000EE
S31500004760F9460000734800002B681A1D1B682A6072
S3150000477004F1420584F842300123A3E02068296849
S31500004780060601F104030AD50E682B60002E03DA33
S315000047902D23764284F843305E480A2319E00E68DA
S315000047A02B6010F0400F18BF36B2EFE72B68206879
S315000047B0191D2960010601D51E6802E04606FBD5D3
S315000047C01E8854486F2F0CBF08230A23002184F843
S315000047D043106568A560002DA2BF216821F0040181
S315000047E021600EB9002D4DD01546B6FBF3F103FB43
S315000047F01167C75D05F8017D3746BB420E46F4D901
S31500004800082B0BD12368DE0708D523696168994216
S31500004810DEBF302305F8013C05F1FF35521B22614E
S31500004820CDF800A04B4603AA21464046FFF7E2FE1C
S3150000483001304CD14FF0FF3004B0BDE8F087354869
S3150000484081F845702968236851F8046B29601D06B4
S3150000485014D5DF0744BF43F0200323601EB9236845
S3150000486023F0200323601023B0E7236843F02003DE
S3150000487023607823284884F84530E3E7590648BF83
S31500004880B6B2E6E71546BBE72B6826686169181DD0
S31500004890286035061B6801D5196002E07006FBD555
S315000048A01980002323611546BAE72B681A1D2A6072
S315000048B01D6862680021284600F02AFB08B1401BEB
S315000048C0606063682361002384F84330A8E72369A6
S315000048D02A4649464046D0470130ABD023689B075D
S315000048E013D4E068039B9842B8BF1846A4E7012397
S315000048F0324649464046D04701309BD00135E368F1
S3150000490003995B1AAB42F2DCEBE7002504F11906CA
S31500004910F5E700BFE2610000F361000038B5064D1F
S315000049200023044608462B60FDF7ACFF431C02D16A
S315000049302B6803B1236038BD1C04FE1FF8B50E4674
S315000049401446054618B183690BB900F0D9F9214B15
S315000049509C422BD16C68A369A360A3891A072FD543
S3150000496023696BB323692068C01A6369F6B2834270
S31500004970374604DC2146284600F02EF930BBA368F2
S31500004980013BA36023685A1C22601E7063690130D4
S31500004990834204D0A389DB0706D50A2E04D121461B
S315000049A0284600F019F988B93846F8BD0A4B9C42EA
S315000049B001D1AC68CFE7094B9C4208BFEC68CAE757
S315000049C02146284600F00CF80028CBD04FF0FF37E0
S315000049D0EAE700BF246200004462000004620000AF
S315000049E0324B70B51D6806460C4625B1AB6913B946
S315000049F0284600F085F92E4B9C420FD16C68A3899E
S31500004A00B4F90C2019072CD4DD0611D40923336020
S31500004A1042F04003A3814FF0FF303EE0254B9C421D
S31500004A2001D1AC68EBE7244B9C4208BFEC68E6E793
S31500004A30580712D5616B41B104F14403994202D083
S31500004A403046FFF79DFB00236363A38923F024030D
S31500004A50A3810023636023692360A38943F00803CD
S31500004A60A38123694BB9A38903F42073B3F5007FAF
S31500004A7003D02146304600F009FAA089B4F90C208B
S31500004A8010F001030AD00023A36063695B42A361AF
S31500004A90236943B910F08000BAD170BD810758BFB1
S31500004AA06369A360F4E70020F7E700BF0400FE1F78
S31500004AB024620000446200000462000008B506207B
S31500004AC000F0AAFA012000F0B3FDFFFF8A892DE964
S31500004AD0F041054610070C4658D44B68002B05DC00
S31500004AE00B6C002B02DC0020BDE8F081E66A002E8C
S31500004AF0F9D0002312F480522F682B6032D0606DFB
S31500004B00A3895A0705D56368C01A636B0BB1236C7A
S31500004B10C01A00230246E66A216A2846B047431CAB
S31500004B20A38906D129681D292CD82A4ACA40D60746
S31500004B3028D500226260D9042269226004D5421C6D
S31500004B4001D12B6803B96065616B2F600029CAD05B
S31500004B5004F14403994202D02846FFF711FB0020D6
S31500004B606063C1E7216A01232846B047411CC7D1CB
S31500004B702B68002BC4D01D2B01D0162B01D12F6022
S31500004B80B1E7A38943F04003A381ADE70F69002F86
S31500004B90A9D093070E6808BF4B690F6018BF0023A2
S31500004BA0A6EB07088B60B8F1000F9CDD216AA66AA8
S31500004BB043463A462846B047002806DCA38943F018
S31500004BC04003A3814FF0FF308EE70744A8EB0008AF
S31500004BD0E9E700BF0100402038B50B6905460C46E1
S31500004BE013B90025284638BD18B183690BB900F002
S31500004BF087F8144B9C421BD16C68B4F90C30002B1F
S31500004C00EFD0626ED00704D4990502D4A06D00F0EF
S31500004C1015F928462146FFF759FF636EDA07054660
S31500004C20E0D4A3899B05DDD4A06D00F008F9D9E78F
S31500004C30054B9C4201D1AC68DFE7044B9C4208BFA0
S31500004C40EC68DAE7246200004462000004620000B7
S31500004C50002310B50446C0E90033C0E9043383607D
S31500004C6081814366C2818361194608225C30FFF761
S31500004C7019FA054B6362054BA362054BE362054BCC
S31500004C802462236310BD00BF515000007350000022
S31500004C90AB500000CF500000014900F0AFB800BF94
S31500004CA0D94B000070B568224D1E55430E4605F1DE
S31500004CB07401FFF7D1FA044640B10021C0E900169D
S31500004CC00C30A06005F16802FFF7ECF9204670BDD4
S31500004CD0014800F0B3B800BF1904FE1F014800F0F8
S31500004CE0AEB800BF1904FE1F014800F0A7B800BF08
S31500004CF01A04FE1F014800F0A2B800BF1A04FE1FE6
S31500004D0010B50446FFF7F0FFA3691BB1BDE81040DC
S31500004D10FFF7F0BFC4E912332365134B134A1B6830
S31500004D20A262A34204BF0123A361204600F020F83B
S31500004D306060204600F01CF8A060204600F018F8DD
S31500004D400022E06004216068FFF782FFA06801226C
S31500004D500921FFF77DFFE06802221221FFF778FFA5
S31500004D600123A361D2E700BFFC600000994C00005C
S31500004D70F8B50746FFF7ACFF1E4B1E68B36913B9BB
S31500004D803046FFF7BDFF4836D6E90134013B03D56F
S31500004D9033680BB33668F7E7B4F90C50D5B9164B40
S31500004DA0E36004F15800656600F047F8FFF796FFE8
S31500004DB0C4E90155C4E904552560A56108222946C0
S31500004DC004F15C00FFF76EF9C4E90D55C4E912550C
S31500004DD02046F8BD6834D9E704213846FFF762FF5C
S31500004DE0044630600028D5D1FFF778FF0C233B60DE
S31500004DF0EEE700BFFC6000000100FFFF2DE9F8436D
S31500004E000646884600F148040027D4E90195B9F121
S31500004E10010905D52468002CF7D13846BDE8F8838A
S31500004E20AB89012B07D9B5F90E30013303D02946DA
S31500004E303046C04707436835E9E770477047704713
S31500004E4070B50E46B1F90E10002996B014461D46EF
S31500004E5008DAB6F90C3000222A601A0610D44FF48C
S31500004E6080630EE06A4600F059F90028F1DB019AEA
S31500004E7002F47042A2F500535A425A412A60EEE704
S31500004E8040230020236016B070BDFFFF8B8973B5E9
S31500004E909D0706460C4607D504F1470323602361A8
S31500004EA00123636102B070BD01AB6A46FFF7C8FF1C
S31500004EB0009905463046FFF7CFF948B9B4F90C30EA
S31500004EC09A05EFD423F0030343F00203A381E3E73B
S31500004ED00D4BB362A389206043F08003A381009B3E
S31500004EE06361019B20615BB1B4F90E10304600F09E
S31500004EF027F928B1A38923F0030343F00103A38113
S31500004F00A0890543A581CDE7994C0000FFFFFFFF6F
S31500004F1001F0FF01102A2BDB10F0070F08D010F864
S31500004F20013B013A8B422DD010F0070F42B3F6D168
S31500004F30F0B441EA012141EA014122F007047FF081
S31500004F4000070023F0E80256083C85EA010586EAD8
S31500004F50010685FA47F5A3FA87F586FA47F6A5FA14
S31500004F6087F68EB9EED1F0BC01F0FF0102F0070220
S31500004F7032B110F8013B013A83EA010313B1F8D1CB
S31500004F800020704701387047002D06BF35460338AC
S31500004F90073815F0010F07D1013015F4807F02BFE5
S31500004FA0013015F4C03F0130F0BC0138704700BF36
S31500004FB00148FFF743BF00BF1804FE1F0148FFF773
S31500004FC03EBF00BF1804FE1F1F2938B504460D4614
S31500004FD004D9162303604FF0FF3038BD426C12B17E
S31500004FE052F821304BB9204600F030F82A460146E7
S31500004FF02046BDE8384000F017B8012B0AD0591CEE
S3150000500003D1162303600120E7E7002442F8254078
S31500005010284698470020E0E7024B01461868FFF74C
S31500005020D3BF00BF0400FE1F38B5074D002304465A
S31500005030084611462B6000F019FB431C02D12B6871
S3150000504003B1236038BD00BF1C04FE1F00F0AAB9DF
S3150000505010B50C46B1F90E1000F094F80028ABBF5D
S31500005060636DA3891B1823F48053ACBF6365A381CA
S3150000507010BD2DE9F0411F468B89DB0505460C4620
S31500005080164605D5B1F90E100223002200F068F885
S31500005090A389B4F90E1023F48053A38132463B460C
S315000050A02846BDE8F04100F017B810B50C46B1F936
S315000050B00E1000F055F8431CA38915BF606523F454
S315000050C0805343F48053A38118BFA38110BDB1F967
S315000050D00E1000F013B8FFFF38B5074D044608461A
S315000050E0114600222A601A4600F005F9431C02D137
S315000050F02B6803B1236038BD1C04FE1F38B5064D6E
S315000051000023044608462B6000F026F9431C02D112
S315000051102B6803B1236038BD1C04FE1F38B5074D4C
S3150000512000230446084611462B6000F05EF9431C36
S3150000513002D12B6803B1236038BD00BF1C04FE1FDB
S3150000514038B5064D0023044608462B6000F054FA95
S31500005150431C02D12B6803B1236038BD1C04FE1F1B
S3150000516038B5074D04460846114600222A601A46FD
S3150000517000F0AFF8431C02D12B6803B1236038BDA1
S315000051801C04FE1F38B5074D04460846114600228A
S315000051902A601A4600F045F8431C02D12B6803B179
S315000051A0236038BD1C04FE1F0A4B10B50446186860
S315000051B018B183690BB9FFF7A3FD132C07D806486E
S315000051C050F83420013202D000EBC40010BD00209C
S315000051D0FCE700BF0400FE1F2004FE1FF8B50446CE
S315000051E0FEF74CFF13260546002730463946ABBE70
S315000051F006462E602046F8BD431C01D1FFF7EEBFE0
S31500005200704730B585B0CDE901010392062401ADA2
S3150000521020462946ABBE04462046FFF7EDFF05B003
S3150000522030BD37B515460191FFF7BEFF019904461B
S3150000523038B9FEF723FF092303604FF0FF3003B0B0
S3150000524030BD00682A46FFF7DCFF431CF7D06368D1
S315000052502A1A134463601046F1E7F7B50C46164662
S31500005260FFF7A2FF054640B9FEF708FF09230360D2
S315000052704FF0FF34204603B0F0BD022E03D9FEF7EF
S31500005280FDFE1623F3E7012E12D14368E418F6D487
S315000052902B680A26CDE900346F4630463946ABBE48
S315000052A006463046FFF7A8FF0028E1DB6C60E1E721
S315000052B0022EEDD1036800930C266F463046394620
S315000052C0ABBE06463046FFF797FF431CD0D00444DA
S315000052D0DEE7FFF7C2BF30B585B0CDE90101039225
S315000052E0052401AD20462946ABBE04462046FFF7FD
S315000052F083FF05B030BD37B515460191FFF754FF62
S315000053000199044630B9FEF7B9FE092303604FF050
S31500005310FF3012E000682A46FFF7DDFF0028F6DBC3
S3150000532062682B1A1A44A842626005D1002003B0B5
S31500005330BDE83040FFF752BF184603B030BD37B561
S315000053400224019001AD20462946ABBE0446204604
S31500005350FFF752FF03B030BD38B50546FFF724FF0F
S31500005360044630B9FEF78AFE092303604FF0FF308A
S3150000537038BD013D012D09D8094B9A681B699A422F
S3150000538004D14FF0FF3303600020F1E72068FFF7F8
S31500005390D6FF0028ECD14FF0FF332360E8E700BFCB
S315000053A02004FE1F0120704770B50C46FFF7FCFE77
S315000053B0054630B9FEF762FE092303604FF0FF3061
S315000053C070BD636843F4005363604FF48063A36465
S315000053D00C2630462946ABBE05462846FFF70CFF8D
S315000053E0431C1CBF20610020EAE70B4610B50021D4
S315000053F0044658221846FEF755FE01462046BDE8EB
S315000054001040FFF7D1BF38B50D460446582200219B
S315000054102846FEF747FE2046002100F011F8431CFF
S3150000542004460BD06B6843F401436B602946FFF7D3
S31500005430BBFF05462046FFF78FFF2C46204638BDAA
S315000054402DE9F043DFF8A88097B007460E46002501
S3150000545058F83540611C37D00135142DF8D1FEF7C8
S315000054600DFE182303604FF0FF343DE0C6F3004401
S3150000547040F20163B20748BF44F002041E4218BF5F
S3150000548044F00404330748BF24F00404384648BFF8
S3150000549044F00804009700F0F5F8CDE90140012436
S315000054A020464946ABBE0446002C08DB48F835408A
S315000054B008EBC5080023C8F804302C4614E0204643
S315000054C0FFF78CFE04460FE006F42063B3F5206F69
S315000054D0E946CBD149463846FFF795FF0130C5D09E
S315000054E0FEF7CCFD11230360204617B0BDE8F0831C
S315000054F02004FE1F2DE9F74306460F462A480021E1
S315000055001546FFF79DFF2A46044600213046FEF762
S31500005510C9FD631C16D02046FFF746FE4FF00C0966
S31500005520804648464146ABBE80464046FFF764FE8D
S31500005530032802DDC31EAB4208DC2046FFF70CFF42
S315000055404FF0FF34204603B0BDE8F08304220DEB94
S3150000555002012046FFF765FE0328EEDD9DF80430C4
S31500005560532BEAD19DF80530482BE6D19DF806303D
S31500005570462BE2D19DF80730422BDED10122394677
S315000055802046FFF76AFE0028D7DB2A46314620462A
S31500005590FFF747FE05462046FFF7DEFE2846FFF7E3
S315000055A02BFE0446CEE700BF6462000037B50A4D05
S315000055B00A4C0021012201A829602260FFF79AFF08
S315000055C0002807DD9DF8043003F0010203F0020312
S315000055D02A60236003B030BD6800FE1F6C00FE1F0A
S315000055E010B5044C2368002B01DAFFF7DFFF2068B3
S315000055F010BD00BF6800FE1F70B5FFF7D5FD092579
S31500005600044620B9FEF73AFD0560204670BD2846DF
S315000056102146ABBE0446012CF7D0FEF72FFD002431
S315000056200546132630462146ABBE06462E60ECE7FD
S31500005630014608B5024A4FF0FF3000F003F800BFFC
S315000056402600020007B5CDE90021FFF7C9FF0028B3
S3150000565014BF20241824FFF7C3FF20B16D4620464F
S315000056602946ABBE0446009DF9E7FFFF062908B5AB
S315000056700CBF024A024AFFF7E5FF00BF2300020003
S3150000568026000200034613F8012B002AFBD1181A44
S31500005690013870474275696C7420776974682052C6
S315000056A0656E657361732053796E6572677920281C
S315000056B0544D2920536F667477617265205061637B
S315000056C06B6167652076657273696F6E20322E3660
S315000056D02E312B6275696C642E3264653465323501
S315000056E0343238306637626533613061663064362D
S315000056F03738363637366239383362316630663493
S3150000570034000000322E362E310000000001060261
S31500005710F8B500BFF8BC08BC9E467047F8B500BF98
S31500005720F8BC08BC9E467047D50A0000010A000076
S31500005730AD0C0000E1080000990B0000F50B00001D
S31500005740B1090000490B0000590C00006507000074
S31500005750B5070000E9070000F10600002507000074
S3150000576025080000D50D0000550E0000750D00003F
S31500005770890D00009D0D0000B10D0000C50D000053
S315000057808514000041200000091F000009160000D2
S315000057904519000021130000750F0000691700006D
S315000057A07D130000AD120000251000004D10000012
S315000057B075100000F51100009D100000C5100000D6
S315000057C0850E0000890E00001D1300001113000055
S315000057D01513000019130000ED100000151100004C
S315000057E03D110000E91100008D0E000000000100CF
S315000057F000000200010002000400FFFF000001009B
S315000058000200FFFF010002000300FFFF40420F00FD
S315000058100000000040420F000000000004000000ED
S3150000582002000000002D310100366E013004020135
S31500005830020A1E00D0FE0100FFFFFFFFFFFFFF363A
S3150000584036FFFF8EFFFFFFFFFF808D815F49538389
S315000058509FFFFFFFFFFFFFFFD0F4D6FFDCFFFFFF38
S31500005860FFFFFFE5EEFFFFC34245466B8C8988FFCD
S31500005870FFFFFFFFFFFFFFFF4F6D82848685FFFF5F
